:020000040800F2
:1000000000280020111300085110000857100008A4
:100010005D1000086310000869100008000000006F
:100020000000000000000000000000006F10000849
:100030007B100008000000008710000893100008E3
:1000400059130008591300085913000859130008E0
:1000500059130008591300085913000859130008D0
:1000600059130008591300085913000859130008C0
:1000700059130008591300085913000859130008B0
:1000800059130008591300085913000859130008A0
:100090005913000859130008591300085913000890
:1000A0005913000859130008591300085913000880
:1000B000A11000085913000800000000591300089F
:1000C0005913000800000000000000005913000848
:1000D0000000000059130008591300080000000038
:1000E00059130008591300085913000800000000B4
:1000F0000000000000000000000000000000000000
:0C01000000000000000000005FF808F1A3
:10010C0010B5054C237833B9044B13B10448AFF345
:10011C0000800123237010BD60000020000000004F
:10012C00B429000808B5034B1BB103490348AFF3CE
:10013C00008008BD0000000064000020B429000805
:10014C0080B582B000AF78607B68092B00F28081AB
:10015C0001A252F823F000BF8D010008D501000860
:10016C001D02000865020008AD020008F502000837
:10017C003D03000885030008CD03000815040008A2
:10018C0000220121B54801F0E6FB00220221B34810
:10019C0001F0E1FB00220421B04801F0DCFB00225D
:1001AC000821AE4801F0D7FB00221021AB4801F02A
:1001BC00D2FB00222021A94801F0CDFB01224021D5
:1001CC00A64801F0C8FB44E101220121A34801F03B
:1001DC00C2FB00220221A14801F0BDFB0022042138
:1001EC009E4801F0B8FB012208219C4801F0B3FBAA
:1001FC0001221021994801F0AEFB012220219748E1
:10020C0001F0A9FB01224021944801F0A4FB20E15C
:10021C0000220121914801F09EFB002202218F480F
:10022C0001F099FB012204218C4801F094FB00227F
:10023C0008218A4801F08FFB00221021874801F029
:10024C008AFB01222021854801F085FB00224021F8
:10025C00824801F080FBFCE0002201217F4801F084
:10026C007AFB002202217D4801F075FB002204215B
:10027C007A4801F070FB00220821784801F06BFBF2
:10028C0001221021754801F066FB012220217348E0
:10029C0001F061FB00224021704801F05CFBD8E0CA
:1002AC00012201216D4801F056FB002202216B480E
:1002BC0001F051FB00220421684801F04CFB0122A3
:1002CC000821664801F047FB01221021634801F028
:1002DC0042FB00222021614801F03DFB002240211D
:1002EC005E4801F038FBB4E0002201215B4801F0CC
:1002FC0032FB01220221594801F02DFB002204217E
:10030C00564801F028FB00220821544801F023FB39
:10031C0001221021514801F01EFB002220214F48E0
:10032C0001F019FB002240214C4801F014FB90E035
:10033C0000220121494801F00EFB0122022147480D
:10034C0001F009FB00220421444801F004FB0022C7
:10035C000821424801F0FFFA002210213F4801F029
:10036C00FAFA002220213D4801F0F5FA0022402142
:10037C003A4801F0F0FA6CE000220121374801F014
:10038C00EAFA00220221354801F0E5FA00220421A4
:10039C00324801F0E0FA01220821304801F0DBFA82
:1003AC00012210212D4801F0D6FA012220212B48E0
:1003BC0001F0D1FA01224021284801F0CCFA48E0A2
:1003CC0000220221254801F0C6FA0022042123480C
:1003DC0001F0C1FA00220821204801F0BCFA0022E9
:1003EC0010211E4801F0B7FA002220211B4801F011
:1003FC00B2FA00224021194801F0ADFA0022012185
:10040C00164801F0A8FA24E000220121134801F05B
:10041C00A2FA00220221114801F09DFA00220421C7
:10042C000E4801F098FA002208210C4801F093FACA
:10043C0001221021094801F08EFA002220210748E0
:10044C0001F089FA00224021044801F084FA00E00E
:10045C0000BF00BF0837BD4680BD00BF000C014087
:10046C0080B582B000AF78607B68032B7AD801A28C
:10047C0052F823F091040008C90400080105000893
:10048C003905000801228021394801F064FA012263
:10049C004FF48071364801F05EFA01224FF400717E
:1004AC00334801F058FA334B1B681846FFF748FEE7
:1004BC00002240212E4801F04EFA54E00122402146
:1004CC002B4801F048FA01224FF48071284801F0C2
:1004DC0042FA01224FF40071254801F03CFA254BF9
:1004EC005B681846FFF72CFE00228021204801F0A3
:1004FC0032FA38E0012280211D4801F02CFA012249
:10050C0040211B4801F027FA01224FF400711848D2
:10051C0001F021FA174B9B681846FFF711FE0022D9
:10052C004FF48071124801F016FA1CE00122802170
:10053C000F4801F010FA01224FF480710C4801F0C1
:10054C000AFA012240210A4801F005FA094BDB683E
:10055C001846FFF7F5FD00224FF40071044801F036
:10056C00FAF900E000BF00BF0837BD4680BD00BFF0
:10057C00000801408000002080B483B000AF786098
:10058C0039607B68092B06DC214B00221A60204A5B
:10059C007B68536016E07B681E4A82FB0312921044
:1005AC00DB17D31A1A4A136079681A4B83FB0123A1
:1005BC009A10CB17D21A13469B0013445B00CA1A2D
:1005CC00134B5A603B68092B06DC114B00229A60D6
:1005DC000F4A3B68D36016E03B680E4A82FB03125D
:1005EC009210DB17D31A0A4A93603968094B83FBC4
:1005FC0001239A10CB17D21A13469B0013445B00AD
:10060C00CA1A034BDA6000BF0C37BD4680BC70477A
:10061C00800000206766666680B483B000AF7860A7
:10062C007B68084A82FB03129210DB17D31A064A26
:10063C001360064B00221A6000BF0C37BD4680BC0D
:10064C00704700BF6766666690000020B800002007
:10065C0080B483B000AF78607B68084A82FB0312D9
:10066C009210DB17D31A064A1360064B00221A604D
:10067C0000BF0C37BD4680BC704700BF676666661E
:10068C0094000020BC00002080B483B000AF7860E0
:10069C007B68084A82FB03129210DB17D31A064AB6
:1006AC001360064B00221A6000BF0C37BD4680BC9D
:1006BC00704700BF6766666698000020C000002087
:1006CC0080B400AF424B1B68012B03D1414B01227C
:1006DC001A6004E03E4B1B68013B3D4A13603E4BE5
:1006EC001B68012B03D13D4B01221A6004E03A4BED
:1006FC001B68013B384A1360394B1B68012B03D133
:10070C00384B01221A6004E0354B1B68013B344A1C
:10071C001360354B1B68012B03D1344B01221A603B
:10072C0004E0314B1B68013B2F4A1360304B1B68B4
:10073C00012B03D12F4B01221A6004E02C4B1B68B8
:10074C00013B2B4A13602C4B1B68012B03D12B4B09
:10075C0001221A6004E0284B1B68013B264A1360F7
:10076C00274B1B68012B03D1264B01221A6004E096
:10077C00234B1B68013B224A1360234B1B68012B44
:10078C0003D1224B01221A6004E01F4B1B68013B72
:10079C001D4A13601E4B1B68012B03D11D4B0122FC
:1007AC001A6004E01A4B1B68013B194A13601A4B80
:1007BC001B68012B03D1194B01221A6004E0164B64
:1007CC001B68013B144A136000BFBD4680BC7047D8
:1007DC0090000020B800002094000020BC000020F5
:1007EC0098000020C00000209C000020C4000020C5
:1007FC00A0000020C8000020A4000020CC00002095
:10080C00A8000020D0000020AC000020D400002064
:10081C00B0000020D8000020B4000020DC00002034
:10082C0080B400AF064B1B68012B04D1044B002293
:10083C001A60012300E000231846BD4680BC7047B7
:10084C00E000002080B500AF244B1B68244A1360E5
:10085C00244B1B68214A13600221234801F064F8E1
:10086C0003461A461F4B1A601D4B1A681B4B1B681C
:10087C009A4231D1194B1A681A4B1B689A422BD1E8
:10088C00184B1A68194B1B689A4212D0154B1B68EF
:10089C00164A1360134B1B68002B03D1144B012217
:1008AC001A6019E0124B00221A60124B64221A6073
:1008BC0012E00C4B1B68002B0ED10E4B1B68013B3E
:1008CC000C4A13600B4B1B68002B05D1094B3222D1
:1008DC001A60074B01221A6000BF80BD0400002083
:1008EC000000002008000020000801400C0000203F
:1008FC00E00000201000002080B400AF064B1B6805
:10090C00012B04D1044B00221A60012300E00023C8
:10091C001846BD4680BC7047E400002080B500AF8F
:10092C00244B1B68244A1360244B1B68214A136018
:10093C000421234800F0F8FF03461A461F4B1A60A7
:10094C001D4B1A681B4B1B689A4231D1194B1A6804
:10095C001A4B1B689A422BD1184B1A68194B1B68FF
:10096C009A4212D0154B1B68164A1360134B1B6826
:10097C00002B03D1144B01221A6019E0124B0022F8
:10098C001A60124B64221A6012E00C4B1B68002B8D
:10099C000ED10E4B1B68013B0C4A13600B4B1B68B2
:1009AC00002B05D1094B32221A60074B01221A6029
:1009BC0000BF80BD18000020140000201C00002087
:1009CC000008014020000020E4000020240000204A
:1009DC0080B400AF064B1B68012B04D1044B0022E2
:1009EC001A60012300E000231846BD4680BC704706
:1009FC00E800002080B500AF244B1B68244A13602C
:100A0C00244B1B68214A13600821234800F08CFFFB
:100A1C0003461A461F4B1A601D4B1A681B4B1B686A
:100A2C009A4231D1194B1A681A4B1B689A422BD136
:100A3C00184B1A68194B1B689A4212D0154B1B683D
:100A4C00164A1360134B1B68002B03D1144B012265
:100A5C001A6019E0124B00221A60124B64221A60C1
:100A6C0012E0114B1B68002B0ED10E4B1B68013B87
:100A7C000C4A13600B4B1B68002B05D1094B32221F
:100A8C001A60074B01221A6000BF80BD2C000020A9
:100A9C002800002030000020000801403400002015
:100AAC00E8000020380000200C00002080B500AFCA
:100ABC006C4B1B68013B0D2B00F2CF8001A252F84E
:100ACC0023F000BF090B0008670C0008670C000836
:100ADC00670C0008670C0008670C0008670C00081E
:100AEC00670C0008670C0008670C0008670C00080E
:100AFC004D0B0008090C0008AB0B00085A4B1B6887
:100B0C005A4A82FB03125211DB17D31A581C584B4A
:100B1C001B68564A82FB03125211DB17D31A01339E
:100B2C001946FFF729FDFFF77BFE0346002B00F06B
:100B3C0096804C4B0C221A604E4B00221A608EE0B1
:100B4C00FFF76EFE0346002B05D0464B0E221A60B3
:100B5C00484B00221A60FFF7CFFE0346002B05D04E
:100B6C00444B1B6803F57A73424A1360FFF730FF5E
:100B7C000346002B06D03F4B1B683F4A1360394B92
:100B8C0001221A603B4B1B683C4A82FB03129211F8
:100B9C00DB17D31A19465220FFF7EEFC60E0FFF783
:100BAC003FFE0346002B05D02E4B0D221A60314B15
:100BBC0000221A60FFF7A0FE0346002B05D02D4B38
:100BCC001B6803F57A732B4A1360FFF701FF03468A
:100BDC00002B06D0274B1B68294A1360214B01229E
:100BEC001A60244B1B68254A82FB03129211DB17F7
:100BFC00D31A19465320FFF7BFFC31E0FFF710FE64
:100C0C000346002B05D0174B01221A60194B00220A
:100C1C001A60FFF771FE0346002B05D0154B1B68BD
:100C2C0003F57A73134A1360FFF7D2FE0346002BC9
:100C3C0006D0104B1B68134A13600A4B01221A6032
:100C4C000C4B1B680D4A82FB03129211DB17D31A53
:100C5C0019465420FFF790FC02E000BF00E000BFF3
:100C6C0000BF80BD3C000020940000201F85EB518C
:100C7C0098000020EC00002040000020D34D6210B2
:100C8C00480000204400002080B500AF00F060FB5D
:100C9C0000F076F800F0FCF800F0AEF82E4801F009
:100CAC00C3FAFA20FFF7B8FC00F004FA00F096FA49
:100CBC00FFF7FCFE294B1B68012BF5D1FA20FFF73F
:100CCC00ABFC274B1B68002B05D04FF480612548EB
:100CDC0000F059FE12E0244B1B68002B05D04FF49A
:100CEC000061204800F04FFE08E0204B1B68002BF1
:100CFC0004D04FF480511B4800F045FE1C4B1B6880
:100D0C00002B05D04FF40051164800F03CFE12E0C9
:100D1C00184B1B68002B05D04FF48041114800F094
:100D2C0032FE08E0144B1B68002B04D04FF400413A
:100D3C000C4800F028FE114B1B68032B02DD0F4BF7
:100D4C0000221A600D4B1B685A1C0C490A6018468D
:100D5C00FFF786FBA8E700BFF0000020B8000020DA
:100D6C0038010020000C0140400100204801002007
:100D7C003C010020440100204C0100207C0000209C
:100D8C0080B590B000AF07F1180328220021184657
:100D9C0001F002FE3B1D00221A605A609A60DA6074
:100DAC001A610223BB610123BB621023FB62002387
:100DBC007B6307F11803184600F0FEFD0346002B79
:100DCC0001D000F0F3F80F237B600023BB600023FD
:100DDC00FB6000233B6100237B613B1D0021184617
:100DEC0001F06CF80346002B01D000F0DFF800BFD7
:100DFC004037BD4680BD000080B586B000AF07F11E
:100E0C00080300221A605A609A60DA603B4600229E
:100E1C001A605A601D4B4FF080421A601B4B41F612
:100E2C003F725A60194B00229A60184B0922DA6003
:100E3C00164B00221A61154B00229A61134801F0DF
:100E4C00A3F90346002B01D000F0B0F84FF4805307
:100E5C00BB6007F1080319460C4801F039FB034647
:100E6C00002B01D000F0A2F800233B6000237B6034
:100E7C003B461946054801F001FD0346002B01D005
:100E8C0000F094F800BF1837BD4680BDF00000207C
:100E9C0080B588B000AF07F1100300221A605A60C9
:100EAC009A60DA60354B9B69344A43F010039361C6
:100EBC00324B9B6903F01003FB60FB682F4B9B6963
:100ECC002E4A43F0040393612C4B9B6903F00403FB
:100EDC00BB60BB68294B9B69284A43F008039361AC
:100EEC00264B9B6903F008037B607B6800224FF65E
:100EFC00F071234800F02FFD00224FF67F7121483E
:100F0C0000F029FD4FF400533B6100237B6101236A
:100F1C00BB6107F1100319461B4800F089FB0E2337
:100F2C003B6100237B610123BB6107F11003194670
:100F3C00134800F07DFB4FF6F0733B6101237B619E
:100F4C000023BB610223FB6107F1100319460C4817
:100F5C0000F06EFB4FF67F733B6101237B61002336
:100F6C00BB610223FB6107F110031946054800F031
:100F7C005FFB00BF2037BD4680BD00BF00100240A4
:100F8C0000080140000C01400010014080B582B007
:100F9C0000AF7860FFF794FBFFF754FCFFF7BEFC43
:100FAC00FFF728FD00BF0837BD4680BD80B400AFF9
:100FBC0072B600BFFEE7000080B483B000AF0E4BEA
:100FCC009B690D4A43F0010393610B4B9B6903F042
:100FDC0001037B607B68084BDB69074A43F0805355
:100FEC00D361054BDB6903F080533B603B6800BF6A
:100FFC000C37BD4680BC70470010024080B584B0F1
:10100C0000AF78607B681B68B3F1804F13D10C4B39
:10101C00DB690B4A43F00103D361094BDB6903F035
:10102C000103FB60FB68002200211C2000F0C9FAC0
:10103C001C2000F0E2FA00BF1037BD4680BD00BF97
:10104C000010024080B400AFFEE780B400AFFEE7B2
:10105C0080B400AFFEE780B400AFFEE780B400AF11
:10106C00FEE780B400AF00BFBD4680BC704780B4C3
:10107C0000AF00BFBD4680BC704780B400AF00BF5E
:10108C00BD4680BC704780B500AF00F0A7F900BF2B
:10109C0080BD000080B500AF024801F011F900BF1F
:1010AC0080BD00BFF000002080B400AF00BFBD4683
:1010BC0080BC704780B500AF3F4B1B68133B032BC4
:1010CC0070D801A252F823F0E51000081B1100089B
:1010DC004D1100087F110008384B1B681846FFF7AC
:1010EC00B7FA01224FF48061354800F034FC01223C
:1010FC004FF40061324800F02EFC01224FF4805175
:10110C002F4800F028FC2C4B14221A6051E02D4B78
:10111C0001221A602C4B1B68012B45D12B4B1B68F1
:10112C001846FFF795FA01224FF48061244800F02D
:10113C0012FC244B00221A601F4B16221A6033E05B
:10114C00234B01221A60204B1B68012B2ED11B4B09
:10115C001B681846FFF77CFA1D4B00221A6001220F
:10116C004FF40061164800F0F6FB134B14221A6082
:10117C001CE0184B01221A60134B1B68012B17D172
:10118C00154B1B681846FFF763FA01224FF4805188
:10119C000B4800F0E0FB0F4B00221A60064B1522A7
:1011AC001A6005E000BF04E000BF02E000BF00E0F1
:1011BC0000BF00BF80BD00BF5000002040000020D9
:1011CC00000C014038010020BC000020440000202D
:1011DC0040010020480100204800002080B500AFED
:1011EC003F4B1B68173B032B70D801A252F823F01E
:1011FC000D1200084312000875120008A71200080F
:10120C00384B1B681846FFF73FFA01224FF4005188
:10121C00354800F0A0FB01224FF48041324800F029
:10122C009AFB01224FF400412F4800F094FB2C4B09
:10123C001A221A6051E02D4B01221A602C4B1B68AC
:10124C00012B45D1274B1B681846FFF71DFA0122CD
:10125C004FF40051244800F07EFB244B00221A600E
:10126C001F4B1A221A6033E0224B01221A60204BCA
:10127C001B68012B2ED1204B1B681846FFF704FA74
:10128C001C4B00221A6001224FF48041164800F0DA
:10129C0062FB134B18221A601CE0184B01221A60D7
:1012AC00134B1B68012B17D1154B1B681846FFF706
:1012BC00EBF901224FF400410B4800F04CFB0F4BB3
:1012CC0000221A60064B19221A6005E000BF04E0E8
:1012DC0000BF02E000BF00E000BF00BF80BD00BF48
:1012EC005400002044000020000C01403C01002070
:1012FC00C000002044010020400000204C010020D0
:10130C00480000200C480D490D4A002302E0D45837
:10131C00C4500433C4188C42F9D30A4A0A4C002333
:10132C0001E013600432A242FBD3FFF7BDFE01F0D3
:10133C000FFBFFF7A9FC70470000002060000020A5
:10134C00F42900086000002054010020FEE7000092
:10135C0080B500AF084B1B68074A43F010031360BD
:10136C00032000F023F90F2000F008F8FFF724FE0B
:10137C000023184680BD00BF0020024080B582B01B
:10138C0000AF7860124B1A68124B1B7819464FF459
:10139C007A73B3FBF1F3B2FBF3F3184600F03BF9AD
:1013AC000346002B01D001230EE07B680F2B0AD8DB
:1013BC00002279684FF0FF3000F003F9064A7B6891
:1013CC001360002300E0012318460837BD4680BD9A
:1013DC004C0000205C0000205800002080B400AFBE
:1013EC00054B1B781A46054B1B681344034A1360C4
:1013FC0000BFBD4680BC70475C000020500100203F
:10140C0080B400AF024B1B681846BD4680BC7047C9
:10141C005001002080B485B000AF78607B6803F089
:10142C000703FB600C4BDB68BB60BA684FF6FF032D
:10143C001340BB60FB681A02BB68134343F0BF63E5
:10144C0043F40033BB60044ABB68D36000BF14375D
:10145C00BD4680BC704700BF00ED00E080B400AF1B
:10146C00044BDB681B0A03F007031846BD4680BC1F
:10147C00704700BF00ED00E080B483B000AF0346BE
:10148C00FB7197F90730002B0BDBFB7903F01F0284
:10149C00064997F907305B09012000FA02F241F87E
:1014AC00232000BF0C37BD4680BC704700E100E034
:1014BC0080B483B000AF03463960FB7197F90730F5
:1014CC00002B0ADB3B68DAB20C4997F907301201A2
:1014DC00D2B20B4483F800230AE03B68DAB2084925
:1014EC00FB7903F00F03043B1201D2B20B441A76C2
:1014FC0000BF0C37BD4680BC704700BF00E100E068
:10150C0000ED00E080B489B000AFF860B9607A609B
:10151C00FB6803F00703FB61FB69C3F10703042BB2
:10152C0028BF0423BB61FB690433062B02D9FB697A
:10153C00033B00E000237B614FF0FF32BB6902FAF2
:10154C0003F3DA43BB681A407B699A404FF0FF31D2
:10155C007B6901FA03F3D9437B680B4013431846AC
:10156C002437BD4680BC704780B582B000AF786030
:10157C007B68013BB3F1807F01D301230FE00A4A62
:10158C007B68013B53600F214FF0FF30FFF790FF5A
:10159C00054B00229A60044B07221A600023184660
:1015AC000837BD4680BD00BF10E000E080B582B0BA
:1015BC0000AF78607868FFF72DFF00BF0837BD4695
:1015CC0080BD80B586B000AF0346B9607A60FB730E
:1015DC0000237B61FFF742FF78617A68B96878690C
:1015EC00FFF790FF024697F90F3011461846FFF7A8
:1015FC005FFF00BF1837BD4680BD80B582B000AF1D
:10160C000346FB7197F907301846FFF735FF00BF0B
:10161C000837BD4680BD80B582B000AF7860786871
:10162C00FFF7A2FF034618460837BD4680BD0000F1
:10163C0080B48BB000AF7860396000237B620023EC
:10164C003B6261E101227B6A02FA03F3FB613B68B6
:10165C001B68FA691340BB61BA69FB699A4240F096
:10166C0050813B685B68974A93425ED0954A93429F
:10167C0075D8954A934258D0934A93426FD8934A5F
:10168C00934252D0914A934269D8914A93424CD09A
:10169C008F4A934263D88F4A934246D08D4A9342E5
:1016AC005DD8122B2AD8122B59D801A252F823F04C
:1016BC0037170008111700082317000865170008D2
:1016CC006B1700086B1700086B1700086B170008E6
:1016DC006B1700086B1700086B1700086B170008D6
:1016EC006B1700086B1700086B1700086B170008C6
:1016FC006B170008191700082D170008764A93423B
:10170C0013D02CE03B68DB683B6229E03B68DB686C
:10171C0004333B6224E03B68DB6808333B621FE028
:10172C003B68DB680C333B621AE03B689B68002B20
:10173C0002D104233B6213E03B689B68012B05D16B
:10174C0008233B627B68FA691A6109E008233B6253
:10175C007B68FA695A6103E000233B6200E000BF3A
:10176C00BB69FF2B01D87B6801E07B6804337B618C
:10177C00BB69FF2B02D87B6A9B0002E07B6A083BAB
:10178C009B003B617B691A680F213B6901FA03F3EB
:10179C00DB431A40396A3B6901FA03F31A437B694C
:1017AC001A603B685B6803F08053002B00F0A98043
:1017BC004A4B9B69494A43F001039361474B9B6930
:1017CC0003F00103BB60BB68454A7B6A9B0802338C
:1017DC0052F82330FB607B6A03F003039B000F225B
:1017EC0002FA03F3DB43FA681340FB607B683D4A63
:1017FC0093420DD07B683C4A934207D07B683B4AAE
:10180C00934201D1022304E0032302E0012300E010
:10181C0000237A6A02F0030292009340FA681343A1
:10182C00FB602F497B6A9B080233FA6841F823203E
:10183C003B685B6803F48033002B06D02C4B1A6892
:10184C002B49BB6913430B6006E0294B1A68BB6933
:10185C00DB43274913400B603B685B6803F40033A0
:10186C00002B06D0224B5A682149BB6913434B60AD
:10187C0006E01F4B5A68BB69DB431D4913404B60A4
:10188C003B685B6803F48013002B06D0184B9A68F6
:10189C001749BB6913438B6006E0154B9A68BB690B
:1018AC00DB43134913408B603B685B6803F4001304
:1018BC00002B1FD00E4BDA680D49BB691343CB606C
:1018CC001FE000BF00003210000031100000221099
:1018DC000000211000001210000011100010024036
:1018EC000000014000080140000C014000100140C4
:1018FC00000401400B4BDA68BB69DB430949134018
:10190C00CB607B6A01337B623B681A687B6A22FA84
:10191C0003F3002B7FF496AE00BF00BF2C37BD46FF
:10192C0080BC70470004014080B485B000AF786083
:10193C000B467B807B689A687B881340002B02D017
:10194C000123FB7301E00023FB73FB7B1846143768
:10195C00BD4680BC704780B483B000AF78600B4646
:10196C007B8013467B707B78002B03D07A887B6856
:10197C001A6103E07B881A047B681A6100BF0C377C
:10198C00BD4680BC704780B485B000AF78600B4614
:10199C007B807B68DB68FB607A88FB6813401A04E9
:1019AC00FB68D9437B880B401A437B681A6100BFE4
:1019BC001437BD4680BC704780B586B000AF7860E8
:1019CC007B68002B01D1012372E27B681B6803F05A
:1019DC000103002B00F08780924B5B6803F00C0333
:1019EC00042B0CD08F4B5B6803F00C03082B12D12B
:1019FC008C4B5B6803F48033B3F5803F0BD1894B80
:101A0C001B6803F40033002B6CD07B685B68002BE5
:101A1C0068D101234CE27B685B68B3F5803F06D14B
:101A2C00804B1B687F4A43F4803313602EE07B6845
:101A3C005B68002B0CD17B4B1B687A4A23F48033F8
:101A4C001360784B1B68774A23F4802313601DE0E6
:101A5C007B685B68B3F5A02F0CD1724B1B68714A85
:101A6C0043F4802313606F4B1B686E4A43F480333E
:101A7C0013600BE06B4B1B686A4A23F480331360D2
:101A8C00684B1B68674A23F4802313607B685B6890
:101A9C00002B13D0FFF7B4FC386108E0FFF7B0FC63
:101AAC0002463B69D31A642B01D9032300E25D4B38
:101ABC001B6803F40033002BF0D014E0FFF7A0FCFC
:101ACC00386108E0FFF79CFC02463B69D31A642B93
:101ADC0001D90323ECE1534B1B6803F40033002BB7
:101AEC00F0D100E000BF7B681B6803F00203002B01
:101AFC0063D04C4B5B6803F00C03002B0BD0494BB1
:101B0C005B6803F00C03082B1CD1464B5B6803F499
:101B1C008033002B16D1434B1B6803F00203002BC0
:101B2C0005D07B681B69012B01D00123C0E13D4B23
:101B3C001B6823F0F8027B685B69DB0039491343AF
:101B4C000B603AE07B681B69002B20D0364B0122DE
:101B5C001A60FFF755FC386108E0FFF751FC0246AC
:101B6C003B69D31A022B01D90323A1E12D4B1B682E
:101B7C0003F00203002BF0D02A4B1B6823F0F80271
:101B8C007B685B69DB00274913430B6015E0264B30
:101B9C0000221A60FFF734FC386108E0FFF730FCD4
:101BAC0002463B69D31A022B01D9032380E11D4B5A
:101BBC001B6803F00203002BF0D17B681B6803F059
:101BCC000803002B3AD07B689B69002B19D0174B6C
:101BDC0001221A60FFF714FC386108E0FFF710FCD3
:101BEC0002463B69D31A022B01D9032360E10D4B4A
:101BFC005B6A03F00203002BF0D0012000F0A6FA80
:101C0C001CE00A4B00221A60FFF7FAFB38610FE068
:101C1C00FFF7F6FB02463B69D31A022B08D90323C4
:101C2C0046E100BF001002400000424280044242E4
:101C3C00924B5B6A03F00203002BE9D17B681B68B3
:101C4C0003F00403002B00F0A6800023FB758B4BE4
:101C5C00DB6903F08053002B0DD1884BDB69874A7D
:101C6C0043F08053D361854BDB6903F08053BB6039
:101C7C00BB680123FB75824B1B6803F48073002B3C
:101C8C0018D17F4B1B687E4A43F480731360FFF7B7
:101C9C00B7FB386108E0FFF7B3FB02463B69D31A88
:101CAC00642B01D9032303E1754B1B6803F4807388
:101CBC00002BF0D07B68DB68012B06D16F4B1B6AC5
:101CCC006E4A43F0010313622DE07B68DB68002B46
:101CDC000CD16A4B1B6A694A23F001031362674BF0
:101CEC001B6A664A23F0040313621CE07B68DB6802
:101CFC00052B0CD1614B1B6A604A43F00403136241
:101D0C005E4B1B6A5D4A43F0010313620BE05B4BB5
:101D1C001B6A5A4A23F001031362584B1B6A574A39
:101D2C0023F0040313627B68DB68002B15D0FFF7EC
:101D3C0067FB38610AE0FFF763FB02463B69D31A85
:101D4C0041F28832934201D90323B1E04B4B1B6A19
:101D5C0003F00203002BEED014E0FFF751FB3861C7
:101D6C000AE0FFF74DFB02463B69D31A41F2883279
:101D7C00934201D903239BE0404B1B6A03F00203FF
:101D8C00002BEED1FB7D012B05D13C4BDB693B4A93
:101D9C0023F08053D3617B68DB69002B00F08780D4
:101DAC00364B5B6803F00C03082B61D07B68DB6956
:101DBC00022B46D1334B00221A60FFF721FB38610E
:101DCC0008E0FFF71DFB02463B69D31A022B01D931
:101DDC0003236DE0294B1B6803F00073002BF0D13B
:101DEC007B681B6AB3F5803F08D1244B5B6823F4F6
:101DFC0000327B689B68214913434B601F4B5B6827
:101E0C0023F474127B68196A7B685B6A0B431B4969
:101E1C0013434B601B4B01221A60FFF7F1FA386138
:101E2C0008E0FFF7EDFA02463B69D31A022B01D901
:101E3C0003233DE0114B1B6803F00073002BF0D023
:101E4C0035E0104B00221A60FFF7DAFA386108E02F
:101E5C00FFF7D6FA02463B69D31A022B01D90323AA
:101E6C0026E0064B1B6803F00073002BF0D11EE03C
:101E7C007B68DB69012B07D1012319E000100240BC
:101E8C0000700040600042420B4B5B68FB60FB68DB
:101E9C0003F480327B681B6A9A4206D1FB6803F418
:101EAC0070127B685B6A9A4201D0012300E0002328
:101EBC0018461837BD4680BD0010024080B584B06E
:101ECC0000AF786039607B68002B01D10123D0E032
:101EDC006A4B1B6803F007033A689A4210D9674BA8
:101EEC001B6823F0070265493B6813430B60634B87
:101EFC001B6803F007033A689A4201D00123B8E04B
:101F0C007B681B6803F00203002B20D07B681B68E6
:101F1C0003F00403002B05D0594B5B68584A43F47B
:101F2C00E06353607B681B6803F00803002B05D04B
:101F3C00534B5B68524A43F460535360504B5B689D
:101F4C0023F0F0027B689B684D4913434B607B6820
:101F5C001B6803F00103002B40D07B685B68012BEE
:101F6C0007D1474B1B6803F40033002B15D1012319
:101F7C007FE07B685B68022B07D1414B1B6803F049
:101F8C000073002B09D1012373E03D4B1B6803F058
:101F9C000203002B01D101236BE0394B5B6823F06A
:101FAC0003027B685B68364913434B60FFF728FAE2
:101FBC00F8600AE0FFF724FA0246FB68D31A41F2F4
:101FCC008832934201D9032353E02D4B5B6803F015
:101FDC000C027B685B689B009A42EBD1274B1B6819
:101FEC0003F007033A689A4210D2244B1B6823F083
:101FFC00070222493B6813430B60204B1B6803F01C
:10200C0007033A689A4201D0012332E07B681B68CF
:10201C0003F00403002B08D0194B5B6823F4E06237
:10202C007B68DB68164913434B607B681B6803F0C5
:10203C000803002B09D0124B5B6823F460527B68B9
:10204C001B69DB000E4913434B6000F021F802467C
:10205C000B4B5B681B0903F00F030A49CB5C22FA9C
:10206C0003F3094A1360094B1B681846FFF786F9FE
:10207C00002318461037BD4680BD00BF002002402B
:10208C0000100240DC2900084C0000205800002001
:10209C0090B48AB000AF294B3C1D0FCB84E80F00E5
:1020AC0040F201233B800023FB610023BB61002332
:1020BC007B6200237B6100233B62214B5B68FB61ED
:1020CC00FB6903F00C03042B02D0082B03D02BE08C
:1020DC001C4B3B622BE0FB699B0C03F00F0328337A
:1020EC003B4413F8243C7B61FB6903F48033002BE5
:1020FC0012D0134B5B685B0C03F0010328333B4499
:10210C0013F8283CBB617B690E4A03FB02F2BB69E6
:10211C00B2FBF3F37B6204E07B690B4A02FB03F333
:10212C007B627B6A3B6202E0064B3B6200BF3B6A10
:10213C0018462837BD4690BC704700BFCC29000814
:10214C000010024000127A0000093D0080B485B0F6
:10215C0000AF78600A4B1B680A4AA2FB03235B0A98
:10216C007A6802FB03F3FB6000BFFB685A1EFA603F
:10217C00002BF9D100BF00BF1437BD4680BC70479F
:10218C004C000020D34D621080B582B000AF786057
:10219C007B68002B01D1012341E07B6893F83D3033
:1021AC00DBB2002B06D17B68002283F83C207868D8
:1021BC00FEF724FF7B68022283F83D207B681A68B7
:1021CC007B6804331946104600F06AFA7B680122DA
:1021DC0083F846207B68012283F83E207B6801222D
:1021EC0083F83F207B68012283F840207B68012222
:1021FC0083F841207B68012283F842207B6801220E
:10220C0083F843207B68012283F844207B680122F9
:10221C0083F845207B68012283F83D200023184673
:10222C000837BD4680BD000080B485B000AF786033
:10223C007B6893F83D30DBB2012B01D0012335E0F4
:10224C007B68022283F83D207B681B68DA687B6818
:10225C001B6842F00102DA607B681B68164A9342E5
:10226C0009D07B681B68B3F1804F04D07B681B6876
:10227C00124A934211D17B681B689B6803F00703D9
:10228C00FB60FB68062B10D07B681B681A687B68A8
:10229C001B6842F001021A6007E07B681B681A6831
:1022AC007B681B6842F001021A6000231846143741
:1022BC00BD4680BC704700BF002C014000040040AC
:1022CC0080B582B000AF78607B681B681B6903F037
:1022DC000203022B22D17B681B68DB6803F002032C
:1022EC00022B1BD17B681B686FF002021A617B68A2
:1022FC0001221A777B681B689B6903F00303002B90
:10230C0003D0786800F0B1F905E0786800F0A4F922
:10231C00786800F0B3F97B6800221A777B681B6839
:10232C001B6903F00403042B22D17B681B68DB6858
:10233C0003F00403042B1BD17B681B686FF00402B1
:10234C001A617B6802221A777B681B689B6903F40D
:10235C004073002B03D0786800F087F905E07868AB
:10236C0000F07AF9786800F089F97B6800221A7716
:10237C007B681B681B6903F00803082B22D17B6860
:10238C001B68DB6803F00803082B1BD17B681B68F8
:10239C006FF008021A617B6804221A777B681B684D
:1023AC00DB6903F00303002B03D0786800F05DF9C0
:1023BC0005E0786800F050F9786800F05FF97B6808
:1023CC0000221A777B681B681B6903F01003102B23
:1023DC0022D17B681B68DB6803F01003102B1BD128
:1023EC007B681B686FF010021A617B6808221A77F1
:1023FC007B681B68DB6903F44073002B03D078689F
:10240C0000F033F905E0786800F026F9786800F000
:10241C0035F97B6800221A777B681B681B6903F00F
:10242C000103012B0ED17B681B68DB6803F00103F1
:10243C00012B07D17B681B686FF001021A61786869
:10244C00FEF7A4FD7B681B681B6903F08003802BDF
:10245C000ED17B681B68DB6803F08003802B07D1EF
:10246C007B681B686FF080021A61786800F067FA6D
:10247C007B681B681B6903F04003402B0ED17B6803
:10248C001B68DB6803F04003402B07D17B681B689B
:10249C006FF040021A61786800F0F9F87B681B68ED
:1024AC001B6903F02003202B0ED17B681B68DB68B3
:1024BC0003F02003202B07D17B681B686FF02002F0
:1024CC001A61786800F032FA00BF0837BD4680BD4B
:1024DC0080B584B000AF786039607B6893F83C308D
:1024EC00012B01D10223B3E07B68012283F83C204D
:1024FC007B68022283F83D207B681B689B68FB602D
:10250C00FB6823F07703FB60FB6823F47F43FB60DD
:10251C007B681B68FA689A603B681B68B3F5005FC0
:10252C003ED0B3F5005F00F28780B3F5805F00F01A
:10253C008580B3F5805F7FD8702B1AD0702B7BD839
:10254C00602B50D0602B77D8502B3CD0502B73D8AD
:10255C00402B58D0402B6FD8302B64D0302B6BD8FD
:10256C00202B60D0202B67D8002B5CD0102B5AD09E
:10257C0062E07B6818683B6899683B685A683B68FE
:10258C00DB6800F05CF97B681B689B68FB60FB6890
:10259C0043F07703FB607B681B68FA689A604EE037
:1025AC007B6818683B6899683B685A683B68DB68CD
:1025BC0000F045F97B681B689A687B681B6842F4DD
:1025CC0080429A603BE07B6818683B6859683B68BE
:1025DC00DB681A4600F0BCF87B681B685021184673
:1025EC0000F013F92BE07B6818683B6859683B686E
:1025FC00DB681A4600F0DAF87B681B686021184625
:10260C0000F003F91BE07B6818683B6859683B686D
:10261C00DB681A4600F09CF87B681B684021184662
:10262C0000F0F3F80BE07B681A683B681B681946EE
:10263C00104600F0EAF802E000BF00E000BF7B6843
:10264C00012283F83D207B68002283F83C20002384
:10265C0018461037BD4680BD80B483B000AF78609B
:10266C0000BF0C37BD4680BC704780B483B000AF50
:10267C00786000BF0C37BD4680BC704780B483B017
:10268C0000AF786000BF0C37BD4680BC704780B48B
:10269C0083B000AF786000BF0C37BD4680BC70477C
:1026AC0080B485B000AF786039607B681B68FB60D4
:1026BC007B68254A934207D07B68B3F1804F03D0E7
:1026CC007B68224A934208D1FB6823F07003FB60BD
:1026DC003B685B68FA681343FB607B681A4A934259
:1026EC0007D07B68B3F1804F03D07B68174A9342C5
:1026FC0008D1FB6823F44073FB603B68DB68FA6825
:10270C001343FB60FB6823F080023B685B69134357
:10271C00FB607B68FA681A603B689A687B68DA62CF
:10272C003B681A687B689A627B68074A934203D1BC
:10273C003B681A697B681A637B6801225A6100BF87
:10274C001437BD4680BC7047002C0140000400408B
:10275C0080B487B000AFF860B9607A60FB681B6A20
:10276C007B61FB681B6A23F00102FB681A62FB6841
:10277C009B693B613B6923F0F0033B617B681B0168
:10278C003A6913433B617B6923F00A037B617A69E5
:10279C00BB6813437B61FB683A699A61FB687A6991
:1027AC001A6200BF1C37BD4680BC704780B487B02E
:1027BC0000AFF860B9607A60FB681B6A23F0100206
:1027CC00FB681A62FB689B697B61FB681B6A3B6157
:1027DC007B6923F470437B617B681B037A69134329
:1027EC007B613B6923F0A0033B61BB681B013A6929
:1027FC0013433B61FB687A699A61FB683A691A6218
:10280C0000BF1C37BD4680BC704780B485B000AF9C
:10281C00786039607B689B68FB60FB6823F0700311
:10282C00FB603A68FB68134343F00703FB607B686B
:10283C00FA689A6000BF1437BD4680BC704780B4FC
:10284C0087B000AFF860B9607A603B60FB689B684A
:10285C007B617B6923F47F437B613B681A027B6855
:10286C001A43BB6813437A6913437B61FB687A692B
:10287C009A6000BF1C37BD4680BC704780B485B0E1
:10288C0000AF786039607B6893F83C30012B01D144
:10289C00022341E07B68012283F83C207B68022202
:1028AC0083F83D207B681B685B68FB607B681B685A
:1028BC009B68BB60FB6823F07003FB603B681B6884
:1028CC00FA681343FB607B681B68FA685A607B6884
:1028DC001B68144A934209D07B681B68B3F1804F84
:1028EC0004D07B681B68104A93420CD1BB6823F060
:1028FC008003BB603B685B68BA681343BB607B6852
:10290C001B68BA689A607B68012283F83D207B685B
:10291C00002283F83C20002318461437BD4680BCA7
:10292C00704700BF002C01400004004080B483B00D
:10293C0000AF786000BF0C37BD4680BC704780B4D8
:10294C0083B000AF786000BF0C37BD4680BC7047C9
:10295C0070B500260C4D0D4C641BA410A64209D179
:10296C0000F022F800260A4D0A4C641BA410A64263
:10297C0005D170BD55F8043B98470136EEE755F884
:10298C00043B98470136F2E7EC290008EC290008D3
:10299C00EC290008F029000803460244934200D1B8
:1029AC00704703F8011BF9E7F8B500BFF8BC08BC89
:1029BC009E467047F8B500BFF8BC08BC9E467047F1
:1029CC0002030405060708090A0B0C0D0E0F101064
:1029DC0000000000000000000102030406070809C3
:0429EC0031010008AD
:0429F0000D010008CD
:1029F40001000000010000000100000001000000CF
:102A0400C8000000010000000100000001000000F7
:102A140001000000C80000000100000001000000E7
:102A24000100000001000000C800000001000000D7
:102A340088130000B80B0000D00700000024F40045
:102A44001300000017000000100000000100000047
:0400000508001311CB
:00000001FF
